:100000000C94B5000C94DE000C94DE000C94DE0021
:100010000C94DE000C94DE000C9427090C94DE0096
:100020000C94DE000C94DE000C94DE000C945B104B
:100030000C94DE000C94DE000C94BA0F0C94DE00DD
:100040000C94DE000C94DE000C94DE000C94DE00B8
:100050000C94DE000C94DE000C94DE000C947B10FB
:100060000C94DE000C94DE006E616E00696E66001A
:1000700000407A10F35A00A0724E18090010A5D45F
:10008000E80000E87648170000E40B54020000CABC
:100090009A3B000000E1F505000080969800000002
:1000A00040420F000000A086010000001027000061
:1000B0000000E803000000006400000000000A00E7
:1000C000000000000100000000002C76D888DC67EA
:1000D0004F0823DFC1DFAE59E1B1B796E5E3E45342
:1000E000C63AE651997696E8E6C28426EB898C9B5F
:1000F00062ED407C6FFCEFBC9C9F40F2BAA56FA5FF
:10010000F490055A2AF75C936B6CF9676DC11BFC80
:10011000E0E40D47FEF520E6B500D0ED902E03009B
:10012000943577050080841E080000204E0A0000E8
:1001300000C80C333333330F986E12831141EF8DA7
:100140002114893BE65516CFFEE6DB18D1844B38E7
:100150001BF77C1D901DA4BBE424203284725E2218
:100160008100C9F124ECA1E53D2711241FBECFEF8A
:10017000D8E0DEBFCDBF14BE0FB6F894A89580912D
:100180006000886180936000109260000FBE11E0F3
:10019000A0E0B1E0EAE8F9E302C005900D92AE30CC
:1001A000B107D9F721E0AEE0B1E001C01D92A03B5C
:1001B000B207E1F70E9428170C94B11C0C940000C0
:1001C000E0910001F0910101DB014D915D916D9194
:1001D0007C91408F518F628F738F21E0278BDC01E0
:1001E0008C9185A30895CF93DF93C0910001D091A6
:1001F0000101CE010B960E9484129E8B8D8B809103
:100200000001909101010B96DF91CF910895CF935A
:10021000DF9300D000D000D0CDB7DEB780918A0147
:100220008F5F0E94B00B0E94990B209100013091CA
:1002300001013A832983282F217080FDBEC089E106
:1002400090E0A0E0B0E0E981FA8127AB83AB94AB0A
:10025000A5ABB6AB148A1386CF010B960E9484120D
:10026000E981FA81968B858BE0910001F091010183
:100270001082118212821382148280EC85838CE3B7
:1002800090E0A0E0B0E086839783A087B18781E00B
:1002900082870E94990B20910001309101013E83D9
:1002A0002D83282F30E050E040E029833A834B83B0
:1002B0005C83ED81FE81268137814085518569818E
:1002C0007A818B819C810E945F1769837A838B83FB
:1002D0009C83DC01CB010196A11DB11DED81FE8146
:1002E00080839183A283B38314A210A211A212A2CD
:1002F00013A2148E158E168E178E16A217A210A694
:1003000011A615A216A617A610AA11AA0E94990B4B
:10031000E0910001F09101012DEC829F912D1124BB
:10032000292F269526959C7F920F891B90E091AFEF
:1003300080AF0E94990BE0910001F09101013DEC2A
:10034000839F912D112492959695977048E2949FE2
:100350008019112490E093AF82AF81E00E943710A2
:100360000E944F0B5DEC859F912D112496959695DB
:100370009695292F220F220F920F990F891BE0913A
:100380000001F091010182AB40918C0150918D01EF
:1003900060918E0170918F0190E0B0E0A0E0841731
:1003A0009507A607B70771F026960FB6F894DEBF3B
:1003B0000FBECDBFDF91CF91089582E390E0A0E022
:1003C000B0E041CF80E026960FB6F894DEBF0FBEB6
:1003D000CDBFDF91CF910C943710CF93DF93C82F0F
:1003E000D62F811113C0662359F08091B40081117A
:1003F00007C06FEF0E94A00A8FE090E00E94930A6E
:100400006D2F8C2FDF91CF910C94A00A9091B300A7
:1004100081E0911111C08195DD2349F09091B400E4
:10042000992339F3882361F38FEF60E0E3CF8823CA
:1004300039F360E08FEFDECF80E08195D111EECF10
:10044000F6CF1F93CF93DF93C82FE0910001F09177
:10045000010182858C1779F0C230A1F1C330F1F02F
:10046000C13069F060E080E00E94A00AE0910001E4
:10047000F0910101C287DF91CF911F9108951091F2
:100480008601D0918701D11132C0112309F441C0F6
:100490008091B40081113DC06FEF35C0D0918801CB
:1004A000DD2359F08091B400811107C06FEF0E94E5
:1004B000A00A8FE090E00E94930A6D2F80E00E94D6
:1004C000A00AD4CFD0918901DD2361F08091B300DF
:1004D000811108C060E08FEF0E94A00A8FE090E0D9
:1004E0000E94930A60E08D2F0E94A00ABFCF9091D6
:1004F000B30081E0911180E0819511110FC0882334
:1005000041F060E08FEF0E94A00A8FE090E00E942F
:10051000930A612F8D2F0E94A00AA8CF9091B4005A
:10052000992309F4B9CF8823A1F38FEF60E0EBCFD3
:100530000F931F93CF93DF93E0910001F09101019E
:100540008285813001F18250823008F076C040917E
:100550008C0150918D0160918E0170918F012481E9
:1005600080819181A281B381820F911DA11DB11D56
:1005700084179507A607B70708F486C0DF91CF91C7
:100580001F910F91089540918C0150918D016091C0
:100590008E0170918F0180819181A281B38106814A
:1005A000178120853185800F911FA21FB31F8417EB
:1005B0009507A607B70710F780918C0190918D01E0
:1005C000A0918E01B0918F0180839183A283B38328
:1005D0000E94990BE0910001F091010180FF7DC024
:1005E00082858230D1F0C0918901CC2361F0809165
:1005F000B300811108C060E08FEF0E94A00A8FE075
:1006000090E00E94930A60E08C2F0E94A00AE09183
:100610000001F091010182E082870E94990BE09134
:100620000001F091010165810E943F179F5F948353
:10063000DF91CF911F910F910895D0918601C091C4
:100640008701CC2399F19091B30081E091113FC0D3
:100650008195D11133C0882341F060E08FEF0E9473
:10066000A00A8FE090E00E94930A6D2F8C2F0E94C9
:10067000A00AE0910001F091010181E08287DF9101
:10068000CF911F910F91089580918C0190918D01D0
:10069000A0918E01B0918F0180839183A283B38357
:1006A000D0918601C0918701C111CDCFDD23E9F240
:1006B0008091B4008111D9CF6FEFD1CF9091B40068
:1006C0009923D1F3882389F28FEF60E0C8CF80E0CF
:1006D0008195DD2309F4BFCFF1CF8285833009F402
:1006E0009CCFC0918801CC2359F08091B400811136
:1006F00007C06FEF0E94A00A8FE090E00E94930A6B
:100700006C2F80E00E94A00AE0910001F0910101AD
:1007100083E0828782CFCF93DF93C0910001D09195
:1007200001018EA18B8780918C0190918D01A09108
:100730008E01B0918F0148A159A16AA17BA1841BB0
:10074000950BA60BB70B8F3F9105A105B10538F0AE
:1007500080E090E08D8B9E8BDF91CF910895CE014C
:100760000B960E9484128D8B9E8BDF91CF91089502
:10077000CF92DF92EF92FF920F931F93CF93DF936D
:1007800000D000D000D0CDB7DEB780918C01909121
:100790008D01A0918E01B0918F01E0900001F09049
:1007A0000101FE82ED82F70140A151A162A173A176
:1007B000841B950BA60BB70B86A397A3A0A7B1A785
:1007C00025A1821B9109A109B10982A793A7A4A71A
:1007D000B5A716A617A610AA11AA0097A105B105DC
:1007E000B1F023A934A945A956A969017A01F69463
:1007F000E794D794C7948C159D05AE05BF05D0F43A
:1008000086A797A7A0ABB1ABED81FE8101C080E0C8
:1008100094A1890F84A326960FB6F894DEBF0FBE6D
:10082000CDBFDF91CF911F910F91FF90EF90DF909F
:10083000CF9008957C018D01E21AF30A040B150B89
:10084000E982FA820B831C83C801B7010E945F17FB
:10085000ED81FE8166A777A780AB91AB862FD8CFBD
:100860000F931F93CF93DF9300D000D000D0CDB76C
:10087000DEB780918C0190918D01A0918E01B09195
:100880008F0189839A83AB83BC83A0910001B091CF
:100890000101BE83AD8369817A818B819C8128EBC4
:1008A0003BE040E050E00E945F1769837A838B83CE
:1008B0009C836C3D75408105910508F473C040919F
:1008C0008C0150918D0160918E0170918F01ED81AD
:1008D000FE8184AD95ADA6ADB7AD84529A4FAF4FB2
:1008E000BF4F84179507A607B70708F182AD93ADF0
:1008F00020AD31AD8217930708F450C0828588235C
:1009000049F060E080E00E94A00AE0910001F091CF
:100910000101128680E026960FB6F894DEBF0FBE66
:10092000CDBFDF91CF911F910F910C943710809123
:100930008C0190918D01A0918E01B0918F0184AFB7
:1009400095AFA6AFB7AF0E94990BE0910001F0916F
:100950000101877090E091AF80AF0E94990B2091C8
:100960000001309101013E832D839DEC899F912DE3
:10097000112492959695977038E2939F80191124CF
:1009800090E0AD81BE81DB969C938E93DA97FD015A
:1009900020AD31AD8217930708F0B0CF0E949802C6
:1009A00080E1B9CF0E94B80380918C0190918D01B4
:1009B000A0918E01B0918F01ED81FE81448D558D06
:1009C000668D778D84179507A607B70708F463C06F
:1009D00024A189E8289F212D11242295269526956A
:1009E000237080918C0190918D01A0918E01B09126
:1009F0008F0180A391A3A2A3B3A343A954A965A97E
:100A000076A980918C0190918D01A0918E01B09179
:100A10008F01840F951FA61FB71F820F911DA11D67
:100A2000B11D848F958FA68FB78F14A242335105C5
:100A30006105710509F479C085E10E9437102091A4
:100A40000001309101013E832D83D9011A968C91CA
:100A50001A978130C9F0B0918601BD83E09187017A
:100A6000E983E11186C0B11197C06D8189810E942F
:100A7000A00A20910001309101013E832D8381E085
:100A8000D9011A968C931A9790964D915D916D911C
:100A90007C91939717C040A151A162A173A180914D
:100AA0008C0190918D01A0918E01B0918F018A01EE
:100AB0009B010C5F1F4F2F4F3F4F081719072A0745
:100AC0003B07B8F1AD81BE8196968C9196971B96A7
:100AD0008C9380918C0190918D01A0918E01B091A9
:100AE0008F01841B950BA60BB70B8F3F9105A105BA
:100AF000B10588F0AD81BE8156961C921E92559725
:100B000026960FB6F894DEBF0FBECDBFDF91CF9112
:100B10001F910F9108958D819E810B960E948412E2
:100B2000ED81FE81968B858BEBCF82E30E9437109F
:100B300086CF80E00E9437102091000130910101A2
:100B40003E832D83D9011A968C911A97882309F434
:100B50009BCF60E080E00E94A00AE0910001F0914C
:100B60000101FE83ED83128640A151A162A173A110
:100B7000A9CF9091B30081E0911120C08195FD81B2
:100B8000FF2381F09091B400992351F0882309F458
:100B90006CCF8FEF60E00BC08091B400811165CF06
:100BA0006FEF05C0882309F460CF60E08FEF0E94EB
:100BB000A00A8FE090E00E94930A57CF80E0DECF3A
:100BC000EF92FF920F931F93CF93DF9300D000D04B
:100BD00000D0CDB7DEB78C017B0120918C01309124
:100BE0008D0140918E0150918F0129833A834B836F
:100BF0005C8340910001509101015E834D839C0113
:100C000050E040E069817A818B819C810E945F176E
:100C100069837A838B839C83C701B0E0A0E029813C
:100C20003A814B815C81281739074A075B0708F432
:100C300077C040918C0150918D0160918E0170912F
:100C40008F010E191F09ED81FE8184AD95ADA6AD12
:100C5000B7AD800F911FA11DB11D84179507A60781
:100C6000B70718F182AD93AD20AD31AD8217930770
:100C700008F452C08285882349F060E080E00E9439
:100C8000A00AE0910001F0910101128680E0269611
:100C90000FB6F894DEBF0FBECDBFDF91CF911F918D
:100CA0000F91FF90EF900C94371080918C019091F0
:100CB0008D01A0918E01B0918F0184AF95AFA6AF49
:100CC000B7AF0E94990BE0910001F091010187708C
:100CD00090E091AF80AF0E94990B2091000130917C
:100CE00001013E832D839DEC899F912D11249295C6
:100CF0009695977038E2939F8019112490E0AD810A
:100D0000BE81DB969C938E93DA97FD0120AD31ADC9
:100D10008217930708F0AECF0E94980280E1B7CF08
:100D20000E94B80380918C0190918D01A0918E0159
:100D3000B0918F01ED81FE81448D558D668D778D4B
:100D400084179507A607B70708F463C024A189E8AC
:100D5000289F212D11242295269526952370809178
:100D60008C0190918D01A0918E01B0918F0180A393
:100D700091A3A2A3B3A343A954A965A976A980917D
:100D80008C0190918D01A0918E01B0918F01840F03
:100D9000951FA61FB71F820F911DA11DB11D848F26
:100DA000958FA68FB78F14A2423351056105710547
:100DB00009F47BC085E10E94371020910001309139
:100DC00001013E832D83D9011A968C911A978130A7
:100DD000C9F0B0918601BD83E0918701E983E111FB
:100DE00088C0B11199C06D8189810E94A00A2091AB
:100DF0000001309101013E832D8381E0D9011A96D3
:100E00008C931A9790964D915D916D917C919397EB
:100E100017C040A151A162A173A180918C01909152
:100E20008D01A0918E01B0918F018A019B010C5F11
:100E30001F4F2F4F3F4F081719072A073B07C8F1CD
:100E4000AD81BE8196968C9196971B968C938091DE
:100E50008C0190918D01A0918E01B0918F01841B26
:100E6000950BA60BB70B8F3F9105A105B10598F027
:100E7000AD81BE8156961C921E92559726960FB64E
:100E8000F894DEBF0FBECDBFDF91CF911F910F91C0
:100E9000FF90EF9008958D819E810B960E948412A1
:100EA000ED81FE81968B858BE9CF82E30E9437101E
:100EB00084CF80E00E943710209100013091010121
:100EC0003E832D83D9011A968C911A97882309F4B1
:100ED00099CF60E080E00E94A00AE0910001F091CB
:100EE0000101FE83ED83128640A151A162A173A18D
:100EF000A7CF9091B30081E0911120C08195FD8131
:100F0000FF2381F09091B400992351F0882309F4D4
:100F10006ACF8FEF60E00BC08091B400811163CF86
:100F20006FEF05C0882309F45ECF60E08FEF0E9469
:100F3000A00A8FE090E00E94930A55CF80E0DECFB8
:100F40008F929F92AF92BF92EF92FF920F931F9357
:100F5000CF93DF93CDB7DEB762970FB6F894DEBFBD
:100F60000FBECDBF4B015C018D829E82AF82B886E1
:100F7000C901DA0189879A87AB87BC870D871E87ED
:100F80002D813E814F815885CA01B9010E94AD195A
:100F90005B018C0129853A854B855C85CA01B901C5
:100FA0000E94AD199B01AC01A982BA820B831C83FC
:100FB00069817A818B819C810E94E21769837A839F
:100FC0008B839C8369817A818B819C810E94201A0A
:100FD0008B015C0120E030E046E953E469831A8329
:100FE0008B83BC8269817A818B819C810E944E189F
:100FF00087FD42C08D819E81AF81B885B0588D83B9
:101000009E83AF83B8879801A501BC01CD010E94E2
:1010100053186F87788B898B9A8BAD85BE856D93BE
:101020007D938D939C93139789859A85AB85BC8519
:10103000B05889879A87AB87BC879801A501BC0106
:10104000CD010E945318D7016D937D938D939C938E
:10105000139781E090E062960FB6F894DEBF0FBE62
:10106000CDBFDF91CF911F910F91FF90EF90BF9077
:10107000AF909F908F90089590E080E0ECCF08951E
:1010800090E080E008950895BF92CF92DF92EF92B2
:10109000FF920F931F93CF93DF93F89414B817B870
:1010A0001AB815B818B81BB8529A5A9A14BC85E0E9
:1010B00085BD8FEF87BD82E080936E001092800027
:1010C000109281002FE83BE0309389002093880044
:1010D00080936F005398239891EA9093B000809387
:1010E000B1001092B4001092B3008BE080BF83E097
:1010F00080937F0086E080937C0083E880937A0071
:1011000080917A00806480937A0080917A0086FDD5
:10111000FCCF10927C0083EA80937A0081E0809378
:101120007B0081E090E00E94691C8F3F11F080936A
:10113000660010929B01C1E0C0939A01C09399018F
:10114000109298011092970180E990E00E94691C2A
:101150008093960180919601887311F0C093960157
:1011600010929301109292018FEF90E09093910171
:101170008093900110928C0110928D0110928E013B
:1011800010928F0181E08093AF0182E49FE0909301
:1011900095018093940180EB90E00E94691CC82F18
:1011A00081EB90E00E94691CD82FD0938B01C093F3
:1011B0008A0185E090E00E94691C8093890189E0A2
:1011C00090E00E94691C809388018CE090E00E946E
:1011D000691C8093870184E190E00E94691C8093E0
:1011E00086010EE411E08AE6E82E81E0F82E9AE608
:1011F000C92E91E0D92EC0E2D0E0CE010E94691C38
:10120000B82ECE0101960E94691C9B2DF801819396
:1012100091938F01CE01C0960E94691CB82ECE0119
:10122000C1960E94691C9B2DF701819391937F01C8
:101230002296C016D10609F77894DF91CF911F91BD
:101240000F91FF90EF90DF90CF90BF9008950F9295
:101250000FB60F921F9211248F930FB6F894A89592
:1012600080916000886180936000109260000FBEE2
:101270008F911F900F900FBE0F9018953C01EB01BE
:1012800010E099249A9484E0C82E96E0A92E23E8D1
:10129000B22E38E1D32E49E2E42EE091AF01E730DF
:1012A000E0F7F0E0ED54F34E0C948117111102C0F9
:1012B000F3010995C092AF0111E0FE010995EDCF50
:1012C00080919B01811103C1F894A0927C00B0929F
:1012D0007A0080917A00806480937A0080917A000D
:1012E00086FDFCCF809178009091790078948B3ABC
:1012F000E2E09E070CF0E4C08938F2E09F070CF0B2
:10130000EDC0873692400CF4E2C0559A549A3B9A4D
:101310003A9A3D983C98C1CF559854983B9A3A9A3E
:101320003D983C98EFECF7E03197F1F700C00000F2
:10133000559854983B983A983D983C98FFEF21EE89
:1013400084E0F15020408040E1F700C00000A5CFCC
:10135000F89480B7877F80BF80917A008F778093E1
:101360007A0014B817B81AB815B818B81BB80FB661
:10137000F894A895D09260000FBEE0926000809132
:10138000600080648093600083B7817F846083BF46
:10139000F89483B7816083BF7894889583B78E7FF4
:1013A00083BF789410929B01529A5A9A80917A0046
:1013B000806880937A0087E592E00197F1F700C09A
:1013C000000080B7886180BF559A549A3B9A3A9A38
:1013D0003D9A3C9AEFE1FEE43197F1F700C000003E
:1013E00080919B0181115CC0559854983B983A9824
:1013F0003D983C9852CF8091AD01811125C010924B
:10140000B3001092B4001092AE0147CF4899ECCFD0
:10141000559A54983B983A983D983C988FEC97E0B1
:101420000197F1F700C00000559854983B983A98FE
:101430003D983C989FEFE1EEF4E09150E040F040A1
:10144000E1F700C0000029CF9091AD018091AE017D
:10145000981709F422CF8091AD018093AE0180915D
:10146000AD01813009F441C08091AD011092B3000B
:101470009092B400823009F449C09092B3009092E7
:10148000B4008FE295E70197F1F700C0000080916A
:101490008601909187019093B3008093B400FDCEB4
:1014A000559A549A3B983A983D983C98FFEF20E71C
:1014B00082E0F15020408040E1F700C0000094CF6E
:1014C000559854983B9A3A9A3D983C98E6CE559A4E
:1014D000549A3B983A983D983C98DFCE559854984A
:1014E0003B983A983D9A3C9AD8CE9092B30010928D
:1014F000B4008FE295E70197F1F700C000008091FA
:1015000089018093B3001092B400C7CEEFE2F5E7F3
:101510003197F1F700C00000809188011092B3006C
:101520008093B400BACE9C01892B49F08FEC97E0F0
:101530000197F1F700C0000021503109B9F7089573
:101540008093B3006093B40008958FEF8093B3004D
:101550008093B4008FEC97E00197F1F700C0000092
:101560008FEC97E00197F1F700C000008FEC97E057
:101570000197F1F700C000008FEC97E00197F1F7B9
:1015800000C000008FEC97E00197F1F700C0000069
:101590008FEC97E00197F1F700C000008FEC97E027
:1015A0000197F1F700C000008FEC97E00197F1F789
:1015B00000C000008FEC97E00197F1F700C0000039
:1015C0008FEC97E00197F1F700C000008FEC97E0F7
:1015D0000197F1F700C000008FEC97E00197F1F759
:1015E00000C000008FEC97E00197F1F700C0000009
:1015F0008FEC97E00197F1F700C000008FEC97E0C7
:101600000197F1F700C00000089580919B018111BE
:101610001EC0F89487E080937C0083E880937A0072
:1016200080917A00806480937A0080917A0086FDB0
:10163000FCCF809178009091790010927C0023EA91
:1016400020937A0021E020937B00789408958FEF17
:101650009FEF089580919B0181111EC0F89488EC42
:1016600080937C0087E880937A0080917A00806480
:1016700080937A0080917A0086FDFCCF809178007B
:101680009091790010927C0023EA20937A0021E067
:1016900020937B00789408958FEF9FEF08951F9318
:1016A000CF93DF93F0E0E0E080E016E0D3E8C3EA18
:1016B00071E0A1E0B0E060E8F89410937C00D09372
:1016C0007A0090917A00906490937A0090917A00D9
:1016D00096FDFCCF20917800309179002170909197
:1016E0007A00906490937A0090917A0096FDFCCFF6
:1016F000409178005091790010927C00C0937A005C
:1017000070937B0078944170241302C06150A1F65D
:10171000222339F09D010E2E01C0220F0A94EAF710
:10172000822B3196E830F10531F6DF91CF911F9190
:10173000089580910201982F990F990F990F98277A
:101740008091AC0121E0280F2093AC01869586950D
:10175000892792959695977089278093020108951D
:1017600080930201089580919B01811116C0F89425
:1017700086E080937C0083E880937A0080917A00F1
:10178000806480937A0080917A0086FDFCCF8091FE
:10179000780090917900789408958FEF9FEF0895E5
:1017A0002F923F924F925F926F927F928F929F9271
:1017B000AF92BF92CF92DF92EF92FF920F931F935F
:1017C000CF93DF93CDB7DEB728970FB6F894DEBF7F
:1017D0000FBECDBF7C01DC0112960D90BC91A02DF7
:1017E000B887AF83A438E3E0BE070CF477C0DC0110
:1017F000ED90FC9080914E0190914F01DD24DA94A0
:101800008E159F0508F43BC20091500110915101C3
:101810000E151F0508F44AC300915201109153019F
:101820000E151F0508F447C300915401109155018E
:101830000E151F0508F444C300915601109157017D
:101840000E151F0508F441C300915801109159016C
:101850000E151F0508F43EC300915A0110915B015B
:101860000E151F0508F43BC300915C0110915D014A
:101870000E151F0508F43CC300915E0110915F0135
:101880000E151F0508F43DC3009160011091610120
:101890000E151F0508F446C2009162011091630104
:1018A0000E151F0508F436C30091640110916501FF
:1018B0000E151F0508F437C30091660110916701EA
:1018C0000E151F0508F438C30091680110916901D5
:1018D0000E151F0508F439C31AE520C180916A016D
:1018E00090916B018A179B0708F4B1C100916C01BC
:1018F00010916D010A171B0708F4DBC100916E01FE
:1019000010916F010A171B0708F4EEC200917001D5
:10191000109171010A171B0708F4EFC200917201C0
:10192000109173010A171B0708F4F8C100917401A4
:10193000109175010A171B0708F4E8C2009176019F
:10194000109177010A171B0708F4E9C2009178018A
:10195000109179010A171B0708F4EAC200917A0175
:1019600010917B010A171B0708F4EBC200917C0160
:1019700010917D010A171B0708F4ECC200917E014B
:1019800010917F010A171B0708F4E8C2009180013B
:10199000109181010A171B0708F4E4C2009182012B
:1019A000109183010A171B0708F4E0C2009184011B
:1019B000109185018DE02DE030E00A171B0708F437
:1019C0007BC1412C512C30ED3D8340E44E832CE013
:1019D000C22ED12CF601EE0FFF1FE659FE4F80817B
:1019E0009181D801A81BB90B9D0150E040E02983EB
:1019F0003A834B835C83CA01BD010E94FB189B01A3
:101A0000AC0169837A838B839C8369817A818B8122
:101A10009C810E94E2175B016C018F819885092EE1
:101A2000000CAA0BBB0B89839A83AB83BC83BC01DC
:101A3000CD010E94FD183B014C01980150E040E0AF
:101A400029833A834B835C83CA01B8010E94FB1847
:101A50001B018C0192014D815E81A982BA82CB82E9
:101A6000DC8269817A818B819C810E94AD199B0106
:101A7000AC0129823A820B831C8369817A818B8134
:101A80009C810E94E1179B01AC0169827A828B8262
:101A90009C8269817A818B819C810E94E11720E080
:101AA00030E040E251E469837A838B839C836981CF
:101AB0007A818B819C810E94AD1969837A838B83A3
:101AC0009C8369817A818B819C810E94C5188B01DE
:101AD000A982BA82CB82DC8269817A818B819C81E6
:101AE0000E94C51869837A838B839C83C8016981AE
:101AF0007A810E944B17D62E4F8158854D3B52401C
:101B00000CF409C1D701ED90FC9080914E019091A9
:101B10004F018E159F0508F077CE10E0BFEF81E2F0
:101B2000810FDB1609F4ACC02D2D30E050E040E011
:101B300029833A834B835C83CA01B9010E94FB1855
:101B40006B017C01812F90E0B0E0A0E089839A8353
:101B5000AB83BC83BC01CD010E94FB184B015C012F
:101B60002F813885032E000C440B550B29833A83B3
:101B70004B835C83CA01B9010E94FD188B018E83DF
:101B80009D839B01AC0160E070E081E694E40E94DB
:101B9000E1179601A70169837A838B839C8369810E
:101BA0007A818B819C810E94AD196B017C0120E0C0
:101BB00030E04FE254E409831A838E818B839D8148
:101BC0009C8369817A818B819C810E94E1179401B9
:101BD000A50169837A838B839C8369817A818B8158
:101BE0009C810E94AD199B01AC01C982DA82EB8213
:101BF000FC8269817A818B819C810E94E21720E0BE
:101C000030E048E453E469837A838B839C83698161
:101C10007A818B819C810E94531820E030E044E05F
:101C200052E469837A838B839C8369817A818B8177
:101C30009C810E94E21769837A838B839C836981EC
:101C40007A818B819C810E94CC18862F19C0AD3B74
:101C5000B240ACF0D701ED90FC9080914E01909194
:101C60004F01D12C8E159F0508F0CECD812C912CE3
:101C7000A12CB12CC12CD12CE12CF12C71CF81E203
:101C800028960FB6F894DEBF0FBECDBFDF91CF917F
:101C90001F910F91FF90EF90DF90CF90BF90AF908A
:101CA0009F908F907F906F905F904F903F902F907C
:101CB000089581E021E030E06901F1E0CF1AD10818
:101CC000282F30E050E040E029833A834B835C8347
:101CD000CA01B9010E94FB1820E030E040E05FE358
:101CE00069837A838B839C8369817A818B819C81D0
:101CF0000E94AD1920E030E0A90169837A838B83CB
:101D00009C8369817A818B819C810E94E2172B01DF
:101D10008D839E835FCE81E2860FB2CF84E024E084
:101D200030E0CACF59E0652EE9E0F0E0EE0FFF1F8A
:101D3000E45BFE4F80819181D801A81BB90B9D0106
:101D400050E040E029833A834B835C83CA01BD01A4
:101D50000E94FB189B01AC0169837A838B839C836F
:101D600069817A818B819C810E94E217962EA72E31
:101D7000B82EC92EC701FF0CAA0BBB0B89839A830F
:101D8000AB83BC83BC01CD010E94FD18762E872E4B
:101D90007C01980150E040E029833A834B835C83C7
:101DA000CA01B8010E94FB182B018C01862D90E01E
:101DB000B0E0A0E089839A83AB83BC83BC01CD01F2
:101DC0000E94FB1820E030E040E05FE369837A8303
:101DD0008B839C8369817A818B819C810E94AD1960
:101DE00020E030E0A90169837A838B839C83698139
:101DF0007A818B819C810E94E217292D3A2D4B2DEF
:101E00005C2D69837A838B839C8369817A818B8142
:101E10009C810E94AD199B01AC0149825A820B83BF
:101E20001C8369817A818B819C810E94E1179B01CF
:101E3000AC0179828A82EB82FC8269817A818B8112
:101E40009C810E94E11720E030E040E251E4698388
:101E50007A838B839C8369817A818B819C810E94A8
:101E6000AD1969837A838B839C8369817A818B81A5
:101E70009C810E94C5188B019982AA82BB82CC8268
:101E800069817A818B819C810E94C51869837A83DC
:101E90008B839C83C80169817A810E944B17162F1E
:101EA0006F3F09F03BCE81E28D0DEACE662463944C
:101EB000E1E0F0E03BCF82E0682EE2E0F0E036CFF8
:101EC000B3E06B2EE3E0F0E031CFA4E06A2EE4E073
:101ED000F0E02CCFF5E06F2EE5E0F0E027CFE6E074
:101EE0006E2EE6E0F0E022CF82E022E030E0E4CEA9
:101EF00077E0672EE7E0F0E019CF83E023E030E001
:101F0000DBCE68E0662EE8E0F0E010CF85E025E06B
:101F100030E0D2CE4AE0642EEAE0F0E007CF86E07F
:101F200026E030E0C9CE3BE0632EEBE0F0E0FECEF1
:101F300087E027E030E0C0CE2CE0622EECE0F0E05D
:101F4000F5CE88E028E030E0B7CE9DE0692EEDE0E8
:101F5000F0E0ECCE89E029E030E0AECE8AE02AE085
:101F600030E0AACE8BE02BE030E0A6CE8CE02CE077
:101F700030E0A2CE1F920F920FB60F9211242F9332
:101F80003F934F935F936F937F938F939F93AF9301
:101F9000BF93EF93FF9380919201909193012091D1
:101FA000900130919101820F931F90939301809340
:101FB00092018FEF90E090939101809390018FEFC9
:101FC00087BD80918C0190918D01A0918E01B0917F
:101FD0008F010196A11DB11D80938C0190938D01FD
:101FE000A0938E01B0938F0180919B0181110FC04E
:101FF00080919401909195012091920130919301EB
:102000008217930720F48091AF01843089F0FF910B
:10201000EF91BF91AF919F918F917F916F915F9160
:102020004F913F912F910F900FBE0F901F901895D9
:10203000E0910501F09106010995009741F30E9496
:102040003C13882351F0E0910301F09104010995BC
:102050001092930110929201DACF0E94DD1A9C0136
:102060009927909391018093900127BDD0CF80FF55
:1020700011C0559A81FF11C0549A82FF11C03B9A3A
:1020800083FF11C03A9A84FF11C03D9A85FF11C0A9
:102090003C9A0895559881FDEFCF549882FDEFCF7B
:1020A0003B9883FDEFCF3A9884FDEFCF3D9885FDB7
:1020B000EFCF3C9808951F921FB61F9211248F9363
:1020C0009F9310928100109285001092840081E00D
:1020D00080939A018093990110929B0110927C0049
:1020E00093EA90937A0080937B009F918F911F9049
:1020F0001FBE1F9018951F920F920FB60F921124BA
:102100000F931F932F933F934F935F936F937F93FF
:102110008F939F93AF93BF93EF93FF93CF93DF93EF
:1021200000D000D0CDB7DEB720918400309185007B
:1021300041E040939B0180919A018823D9F110924C
:1021400085001092840040938100109297011092B4
:102150009A01809199018823A1F080917A0086FDEF
:10216000FCCF809178009091790090939F018093AB
:102170009E0181E080937C0093EA90937A008093A3
:102180007B000F900F900F900F90DF91CF91FF91F8
:10219000EF91BF91AF919F918F917F916F915F91DF
:1021A0004F913F912F911F910F910F900FBE0F9064
:1021B0001F901895C9018758910984379940A0F05C
:1021C00010928100109285001092840040939A0131
:1021D0004093990110929B0110927C0083EA8093B6
:1021E0007A0040937B00CDCF26583109A4EFB0E0B0
:1021F0000E94871769837A838B839C83AA27BB27D6
:102200001B81183008F465C040939A0180919901B0
:1022100081113CC080919801E82FF0E0E056FE4F1C
:102220009091970190838F5F809398018C3009F093
:10223000A8CF1092810010928500109284004093E4
:10224000990110929B010091AA011091AB0180EAC3
:1022500091E00E9484120817190709F092CFE091CB
:10226000A901E7FF47C098E79E0F933030F05398DD
:1022700023981092B4001092B300E058EB3008F0AD
:1022800080CFF0E0E654F34E0C94811780917A00F1
:1022900086FDFCCF809178009091790090939D010C
:1022A00080939C0110927C0083EA80937A0081E005
:1022B00080937B00909197019923B9F0109281004F
:1022C00010928500109284008093990110929B01D6
:1022D00058CF21E030E001C0220F8A95EAF78091C3
:1022E0009701822B809397014CCF10929901109205
:1022F000980147CFE0910701F09108016CE971E086
:1023000080EA91E009953DCF8091A001823009F4E7
:1023100085C008F06CC0882309F4BEC08091A1017B
:102320009091A20190938B0180938A011092AD014C
:102330008091AF01863009F424CF539A239A1092EA
:10234000B4001092B30086E08093AF011ACF809161
:10235000AF01863099F0539A239A1092B4001092EC
:10236000B300559854983B983A983D983C981092F1
:10237000AD011092AE0186E08093AF012091A001E3
:1023800081E090E002C0880F991F2A95E2F7209122
:102390008A0130918B0182239323892B09F479C020
:1023A00081E08093AD01EDCE82E08093AF01E9CE74
:1023B00085E08093AF01E5CE81E08093AF01E1CE6F
:1023C0001092AF01DECE8091AF01833009F4D9CEF7
:1023D0008091AF01843009F4D4CE539A239A10929D
:1023E000B4001092B30083E08093AF01CACE833073
:1023F00061F1843009F09CCF2091AD018091A6015C
:102400009091A5012330C1F01092AE0123E02093FA
:10241000AD0190938701809386018ACF9091AD01A1
:102420008091A3019130F9F01092AE0191E0909368
:10243000AD01809389017CCF209186012813E4CFE0
:10244000209187019213E0CF73CF9091AD018091DD
:10245000A401923069F01092AE0192E09093AD0128
:102460008093880165CF909189019813DDCF60CF6B
:10247000909188019813EFCF5BCFF0E0E0E00995F1
:1024800080916E008D7F80936E0016BCE0E0F0E7D7
:1024900009951092AD0175CE8091AF01863009F09B
:1024A00070CE60918A0180EB90E00E94711C609177
:1024B0008B0181EB90E00E94711C6091890185E0A5
:1024C00090E00E94711C6091880189E090E00E9478
:1024D000711C609187018CE090E00E94711C6091FA
:1024E000860184E190E00E94711C53982398109219
:1024F000B4001092B30081E08093AF018091A001FD
:10250000882309F43ECE14CFFC0120818FEF9FEF8A
:102510008227082E8295807F8025092E982F82950C
:102520008F700826869598278927880F880F880F2F
:10253000802521818227082E8295807F8025092E83
:10254000982F82958F700826869598278927880F5F
:10255000880F880F802522818227082E8295807F10
:102560008025092E982F82958F70082686959827AA
:102570008927880F880F880F802523818227082EBE
:102580008295807F8025092E982F82958F7008264E
:10259000869598278927880F880F880F80252481A2
:1025A0008227082E8295807F8025092E982F82957C
:1025B0008F700826869598278927880F880F880F9F
:1025C000802525818227082E8295807F8025092EEF
:1025D000982F82958F700826869598278927880FCF
:1025E000880F880F802526818227082E8295807F7C
:1025F0008025092E982F82958F700826869598271A
:102600008927880F880F880F802527818227082E29
:102610008295807F8025092E982F82958F700826BD
:10262000869598278927880F880F880F8025208511
:102630008227082E8295807F8025092E982F8295EB
:102640008F700826869598278927880F880F880F0E
:10265000802521858227082E8295807F8025092E5E
:10266000982F82958F700826869598278927880F3E
:10267000880F880F802508950FB6F894A4B1209193
:1026800096012A2B24B921E030919601203029F0BF
:10269000000025B1232B25B904C000000000000074
:1026A00000C0000000000000309525B1232325B9AB
:1026B0002EEA2A95F1F72BEE30B735FF0AC0A4B900
:1026C00030919601309525B1232325B90FBE80E0C6
:1026D000089500002A9581F721E03091960120307D
:1026E00029F0000025B1232B25B904C0000000000B
:1026F000000000C0000000000000309525B1232339
:1027000025B9000024E52A95F1F7FC018CE06191E0
:1027100070E0660F771F616072609AE041E050E000
:102720009A0126233723232B30919601203029F05C
:10273000000025B1232B25B904C0000000000000D3
:1027400000C0000000000000309525B1232325B90A
:10275000000021E52A95F1F7440F551F9A9501F7DE
:102760008A95A9F620B7206120BFA4B930919601BF
:10277000309525B1232325B90FBE81E00895A3E14B
:10278000B0E0E5ECF3E10C9496177C011B015A01D3
:10279000DC0117961C921E92169713968C9181FF5E
:1027A0004DC3FE0131964F01D70113969C91F10163
:1027B00093FD859193FF81911F01882309F4F1C254
:1027C000853239F493FD859193FF81911F01853204
:1027D00039F4B70190E00E94DB1B65015601E4CF9C
:1027E00010E0712C612CBFE1B61538F08B3211F17D
:1027F00090F4803209F1833229F167FC3CC020ED6E
:10280000280F2A3050F566FE20C0EAE01E9F200DFA
:102810001124122F06C08D3291F0803371F7689425
:1028200060F8F10193FD859193FF81911F01811162
:10283000DACF21C0689461F8689462F8F2CF6894A6
:1028400063F8EFCF689464F8ECCFFAE07F9E200D38
:102850001124722E689465F8E4CF8E3229F466FC58
:10286000A0C2689466F8DDCF8C3619F4689467F8D6
:10287000D8CF8836B1F29BEB980F933008F06FC039
:10288000689464F8805E66FE16E0262D2F73622E33
:10289000853609F06CC0689466F867FE72C0812FB7
:1028A0001C3308F08BE344244394480E27E0D50101
:1028B0004D915D916D917D916D014C875D876E8726
:1028C0007F87042DA4016C857D858E859F850E9460
:1028D000ED1A5C01B981BC87B0FF03C00DE2B3FF04
:1028E00007C00BE261FC04C0062D047062FC00E22C
:1028F000EC85EC705E2E09F454C00111A2C2F3E025
:10290000512CF715A0F483E0572C581A63FC08C02B
:10291000B70180E290E00E94DB1B5A945110F8CF7F
:10292000002329F0B701802F90E00E94DB1BFC857B
:1029300008E610E0F3FD02C00CE610E0262D207141
:10294000622EF8018491811123C0552009F446CFED
:10295000B70180E290E00E94DB1B5A94F6CF9BE91E
:10296000980F933008F02DC1E89464F88CCF863628
:1029700019F4689467F891CF112309F48ECF1150A0
:102980008CCF212F183010F027E017E0412C8FCF8B
:1029900061108052B70190E00E94DB1B0F5F1F4F58
:1029A000D0CF67FE7AC04A0CFC85F4FF04C08A8150
:1029B000813309F44A9414140CF092C028E02415D1
:1029C00010F488E0482E85E090E067FE06C0C5015F
:1029D000B7FE02C080E090E001960111019611233C
:1029E00031F0212F30E02F5F3F4F820F931F781679
:1029F000190619F014F0572C581A862D897011F405
:102A0000511073C0002329F0B701802F90E00E947D
:102A1000DB1B63FC02C051106FC067FE88C035012C
:102A2000B7FE02C0712C612CC50186199709A4015B
:102A3000480F591F598B488BB501641971097B8B5D
:102A40006A8B012F10E0119501951109A614B704A6
:102A50000CF459C0AA89BB89A615B7050CF053C060
:102A6000E889F9898181F1E06F1A710860167106B1
:102A70000CF44BC0B70190E00E94DB1B2FEF6216F5
:102A8000720629F4B7018EE290E00E94DB1B888970
:102A900099890196998B888BD9CF66FC94CFE12FC9
:102AA000F0E0EA15FB053CF03CEFA3163FEFB30660
:102AB00014F0689467F83296E80DF91D01C01150C2
:102AC000112319F082918033D1F367FE7CCF442427
:102AD0004394410E1A151B0431F02CF01A1973CFD0
:102AE0004424439470CF10E06ECFB70180E290E0B1
:102AF0000E94DB1B5A9484CFB70180E390E00E94D0
:102B0000DB1B5A9488CF80E3AECFA614B70441F400
:102B10009A81963350F4953319F43C8534FF05C0FF
:102B2000B70190E00E94DB1B10CF81E3F9CF8A81CF
:102B3000813319F04C854F7E4C87B70190E00E949D
:102B4000DB1B112399F0B7018EE290E00E94DB1BA2
:102B50001E5F02E0802F0F5FF401E80FF11D8081FE
:102B6000B70190E00E94DB1B1013F4CF85E664FCF4
:102B700085E490E0B7010E94DB1BB7FC06C0A114FE
:102B8000B104C1F45C8554FF15C0B194A194B1089F
:102B90008DE2B70190E00E94DB1B80E37AE0A7168C
:102BA000B10454F4B70190E00E94DB1BB701C501EA
:102BB000C096B8CF8BE2EDCF8F5F6AE0A61AB1085E
:102BC000EDCF8336B9F0833709F43AC0833509F085
:102BD0004DC0D501AD90BD906D01612F70E066FCD8
:102BE00002C06FEF7FEFC5010E94C51B8C01689486
:102BF00067F80CC0650182E0C80ED11CD5018C912C
:102C0000898301E010E05401E89467F863FC04C094
:102C10007016110609F018F5572C0115110509F465
:102C200094CEF50167FC859167FE81915F01B70144
:102C300090E00E94DB1B51105A9401501109EDCF16
:102C4000F501A190B1906F01612F70E066FC02C0A8
:102C50006FEF7FEFC5010E94D01B8C01D5CFB7016C
:102C600080E290E00E94DB1B7A94D2CF843619F088
:102C7000893609F06FC067FE64C0F50161917191FA
:102C8000819191916F01B62DBF766B2E97FF09C090
:102C900090958095709561957F4F8F4F9F4F689469
:102CA00067F82AE030E0A4010E940B1CA82EA818A7
:102CB000BA2C062D66FE0AC00E7FA11638F464FEFB
:102CC00004C062FC02C0062D0E7EB12E04FF8EC031
:102CD000FE01EA0DF11D8081803309F080C0097E7C
:102CE000502F5870552E03FD90C000FF8AC01A2D3A
:102CF000B71410F4170D1B1904FF8DC0B70180E342
:102D000090E00E94DB1B02FF07C088E701FD88E519
:102D100090E0B7010E94DB1BA11608F488C0AA94BA
:102D20000A2D10E00F5F1F4F080D191DD8018E915D
:102D30008D01B70190E00E94DB1B08151905B1F762
:102D400004CED5016D917D916D01072E000C880B8D
:102D5000990B99CF062D8537E1F40F7E2AE030E0FC
:102D600007FF35C0D5014D915D916D917D916D014C
:102D70004C875D876E877F87A4016C857D858E85F6
:102D80009F850E940B1CA82EA818602EE89467F857
:102D90008FCF097F803791F058F4883589F08F36CE
:102DA000A1F0F701868197816396E2E10C94B21756
:102DB0008837B9F704FD046020E1D1CF0061FACF74
:102DC00064FC066020E132E0CBCF28E0C8CFF501FB
:102DD000819191916F01AC0170E060E0C9CF02FD7B
:102DE00002C0B3947DCFB394B3947ACF802F86780A
:102DF00009F476CFF6CFB70180E290E00E94DB1BAA
:102E0000B394B714C0F3512C77CF572C5B18B71479
:102E100008F472CFF8CF802F867809F47DCF8BE24B
:102E200001FF80E207FD8DE2B70190E073CFB701AB
:102E300080E390E00E94DB1B11506ECF8FEF9FEF7D
:102E4000B3CF24E0512C271508F06CCD84E05CCD85
:102E50000E94440880EE90E090930801809307015F
:102E600083EF90E0909306018093050160E374E0A6
:102E700087E091E00E943E0990E080E00895991B70
:102E800079E004C0991F961708F0961B881F7A9561
:102E9000C9F78095089597FB072E16F4009407D084
:102EA00077FD09D00E94CD1707FC05D03EF4909520
:102EB00081959F4F0895709561957F4F0895A1E288
:102EC0001A2EAA1BBB1BFD010DC0AA1FBB1FEE1FA4
:102ED000FF1FA217B307E407F50720F0A21BB30BEF
:102EE000E40BF50B661F771F881F991F1A9469F76B
:102EF00060957095809590959B01AC01BD01CF01C7
:102F00000895EE0FFF1F0590F491E02D0994A29F04
:102F1000B001B39FC001A39F700D811D1124911DAD
:102F2000B29F700D811D1124911D08952F923F9223
:102F30004F925F926F927F928F929F92AF92BF92C9
:102F4000CF92DF92EF92FF920F931F93CF93DF9375
:102F5000CDB7DEB7CA1BDB0B0FB6F894DEBF0FBED2
:102F6000CDBF09942A88398848885F846E847D841F
:102F70008C849B84AA84B984C884DF80EE80FD8021
:102F80000C811B81AA81B981CE0FD11D0FB6F89497
:102F9000DEBF0FBECDBFED010895AA1BBB1B51E1E3
:102FA00007C0AA1FBB1FA617B70710F0A61BB70BB9
:102FB000881F991F5A95A9F780959095BC01CD015E
:102FC00008955058BB27AA270E94F9170C9473192B
:102FD0000E94651938F00E946C1920F039F49F3F67
:102FE00019F426F40C9462190EF4E095E7FB0C94A6
:102FF0005C19E92F0E94841958F3BA176207730706
:103000008407950720F079F4A6F50C94A6190EF420
:10301000E0950B2EBA2FA02D0B01B90190010C01E8
:10302000CA01A0011124FF27591B99F0593F50F400
:10303000503E68F11A16F040A22F232F342F442758
:10304000585FF3CF469537952795A795F040539550
:10305000C9F77EF41F16BA0B620B730B840BBAF020
:103060009150A1F0FF0FBB1F661F771F881FC2F78B
:103070000EC0BA0F621F731F841F48F4879577959F
:103080006795B795F7959E3F08F0B0CF9395880F59
:1030900008F09927EE0F9795879508950E943819A3
:1030A00008F481E008950E9467180C9473190E9437
:1030B0006C1958F00E94651940F029F45F3F29F01F
:1030C0000C945C1951110C94A7190C9462190E946C
:1030D000841968F39923B1F3552391F3951B550B8C
:1030E000BB27AA2762177307840738F09F5F5F4FDB
:1030F000220F331F441FAA1FA9F335D00E2E3AF01A
:10310000E0E832D091505040E695001CCAF72BD031
:10311000FE2F29D0660F771F881FBB1F2617370782
:103120004807AB07B0E809F0BB0B802DBF01FF27B4
:1031300093585F4F3AF09E3F510578F00C945C191C
:103140000C94A7195F3FE4F3983ED4F386957795E6
:103150006795B795F7959F5FC9F7880F911D96956D
:10316000879597F90895E1E0660F771F881FBB1FC9
:10317000621773078407BA0720F0621B730B840B76
:10318000BA0BEE1F88F7E09508950E94CC1868945A
:10319000B1110C94A71908950E948C1988F09F57BB
:1031A00098F0B92F9927B751B0F0E1F0660F771F6B
:1031B000881F991F1AF0BA95C9F714C0B13091F061
:1031C0000E94A619B1E008950C94A619672F782FD4
:1031D0008827B85F39F0B93FCCF386957795679526
:1031E000B395D9F73EF490958095709561957F4F92
:1031F0008F4F9F4F0895E89409C097FB3EF4909538
:103200008095709561957F4F8F4F9F4F9923A9F0BF
:10321000F92F96E9BB279395F6958795779567954E
:10322000B795F111F8CFFAF4BB0F11F460FF1BC092
:103230006F5F7F4F8F4F9F4F16C0882311F096E925
:1032400011C0772321F09EE8872F762F05C06623D3
:1032500071F096E8862F70E060E02AF09A95660F8C
:10326000771F881FDAF7880F9695879597F9089545
:10327000990F0008550FAA0BE0E8FEEF1616170687
:10328000E807F907C0F012161306E407F50798F0EF
:10329000621B730B840B950B39F40A2661F0232B08
:1032A000242B252B21F408950A2609F4A140A69584
:1032B0008FEF811D811D089597F99F6780E870E069
:1032C00060E008959FEF80EC089500240A9416169C
:1032D000170618060906089500240A941216130604
:1032E000140605060895092E0394000C11F4882392
:1032F00052F0BB0F40F4BF2B11F460FF04C06F5FAE
:103300007F4F8F4F9F4F089557FD9058440F551F83
:1033100059F05F3F71F04795880F97FB991F61F057
:103320009F3F79F087950895121613061406551FCE
:10333000F2CF4695F1DF08C0161617061806991F3A
:10334000F1CF86957105610508940895E894BB272F
:1033500066277727CB0197F908950E94C0190C942E
:1033600073190E94651938F00E946C1920F095239A
:1033700011F00C945C190C94621911240C94A71987
:103380000E94841970F3959FC1F3950F50E0551F6B
:10339000629FF001729FBB27F00DB11D639FAA27AA
:1033A000F00DB11DAA1F649F6627B00DA11D661FF9
:1033B000829F2227B00DA11D621F739FB00DA11D1A
:1033C000621F839FA00D611D221F749F3327A00DD4
:1033D000611D231F849F600D211D822F762F6A2F70
:1033E00011249F5750409AF0F1F088234AF0EE0FD5
:1033F000FF1FBB1F661F771F881F91505040A9F702
:103400009E3F510580F00C945C190C94A7195F3F06
:10341000E4F3983ED4F3869577956795B795F7953D
:10342000E7959F5FC1F7FE2B880F911D96958795B5
:1034300097F9089519F416F40C9462190C94601A13
:103440000E948C19B8F39923C9F3B6F39F57550B13
:1034500087FF0E946E1A0024A0E640EA900180587F
:103460005695979528F4805C660F771F881F20F08B
:1034700026173707480730F4621B730B840B20298B
:1034800031294A2BA69517940794202531254A27E0
:1034900058F7660F771F881F20F026173707480751
:1034A00030F4620B730B840B200D311D411DA09570
:1034B00081F7B901842F9158880F969587950895C3
:1034C0009F3F31F0915020F4879577956795B79598
:1034D000880F911D9695879597F9089591505040C2
:1034E000660F771F881FD2F70895CF92DF92EF9271
:1034F000FF92CF93DF93CDB7DEB72A970FB6F8943C
:10350000DEBF0FBECDBF89879A87A985BA852D9169
:103510003D914D915C9129833A834B835C83232BAE
:10352000242B252B41F424E239ED4BE557E0298388
:103530003A834B835C8369817A818B819C812DE105
:1035400033EF41E050E00E947F1C69017A01A7EA55
:10355000B1E49B01AC010E949E1C69837A838B833A
:103560009C83ACEEB4EFA70196010E94AC1C9B01BA
:10357000AC0189819A81AB81BC81820F931FA41F0A
:10358000B51FB7FF03C00197A109B048E985FA85C7
:1035900080839183A283B3839F772A960FB6F89492
:1035A000DEBF0FBECDBFDF91CF91FF90EF90DF90D8
:1035B000CF9008950E94751A089589E091E00E94C5
:1035C000751A0895B0E0A0E08093090190930A0174
:1035D000A0930B01B0930C010895283008F027E068
:1035E0003327DA01990F311D87FD9160009661053F
:1035F000710539F432602E5F3D9330E32A95E1F78F
:1036000008959F3F30F080387105610509F03C5FF7
:103610003C5F3D93913008F08068911DDF93CF931C
:103620001F930F93FF92EF92192F987F9695E92F92
:1036300096959695E90FFF27E653FF4F9927332775
:10364000EE24FF24A701E70105900894079428F4CD
:10365000360FE71EF81E491F511D660F771F881F82
:10366000991F0694A1F70590079428F4E70EF81E19
:10367000491F561FC11D770F881F991F661F06948B
:10368000A1F70590079428F4F80E491F561FC71F8D
:10369000D11D880F991F661F771F0694A1F705900B
:1036A000079420F4490F561FC71FD81F990F661F94
:1036B000771F881F0694A9F784911095177041F021
:1036C000D695C79557954795F794E7941A95C1F7FE
:1036D000E0E7F0E06894159015913591659195912A
:1036E00005907FE27395E118F10A430B560BC90B65
:1036F000D009C0F7E10CF11E431F561FC91FD01D92
:103700007EF4703311F48A95E6CFE894015030F0DE
:10371000080F0AF40027021708F4202F2395022F20
:103720007A3328F079E37D932A95E9F710C07D93E9
:103730002A9589F606949795679537951795179466
:10374000E118F10A430B560BC90BD00998F02395E9
:103750007E9173957A3308F070E37C932013B8F769
:103760007E9170617D9330F0839571E37D9370E37A
:103770002A95E1F71124EF90FF900F911F91CF91BF
:10378000DF91992787FD90950895FC010590615080
:1037900070400110D8F7809590958E0F9F1F089567
:1037A000FC016150704001900110D8F78095909510
:1037B0008E0F9F1F08950F931F93CF93DF93182FA2
:1037C000092FEB018B8181FD09C01FEF0FEF812FC6
:1037D000902FDF91CF911F910F91089582FF14C018
:1037E0002E813F818C819D81281739073CF4E88127
:1037F000F981CF0101969983888310838E819F81FF
:1038000001969F838E83E3CFE885F985812F099503
:10381000892BA1F3DACFFA01AA27283051F1203100
:1038200081F1E8946F936E7F6E5F7F4F8F4F9F4F54
:10383000AF4FB1E03ED0B4E03CD0670F781F891F96
:103840009A1FA11D680F791F8A1F911DA11D6A0F64
:10385000711D811D911DA11D20D009F468943F9117
:103860002AE0269F11243019305D3193DEF6CF0116
:103870000895462F4770405D4193B3E00FD0C9F7DC
:10388000F6CF462F4F70405D4A3318F0495D31FD49
:103890004052419302D0A9F7EACFB4E0A69597959C
:1038A000879577956795BA95C9F700976105710572
:1038B00008959B01AC010A2E0694579547953795BC
:1038C0002795BA95C9F7620F731F841F951FA01D16
:1038D0000895F999FECF92BD81BDF89A992780B5D8
:1038E0000895262FF999FECF1FBA92BD81BD20BD44
:1038F0000FB6F894FA9AF99A0FBE01960895052E1C
:1039000097FB1EF400940E94961C57FD07D00E945E
:103910005F1707FC03D04EF40C94961C509540950D
:10392000309521953F4F4F4F5F4F0895909580956B
:10393000709561957F4F8F4F9F4F08950E94871715
:10394000A59F900DB49F900DA49F800D911D1124F3
:103950000895B7FF0C949E1C0E949E1C821B930B23
:103960000895F894FFCFA8098C09600956095D09EC
:10397000060AFB094012C110C1103D12E011DC1112
:0A398000D811D411E311A71184112E
:0E398A000E01AA430840083F0801000000009B
:00000001FF
